:100000000EC015C014C013C012C011C010C00FC064
:100010000EC00DC00CC00BC00AC009C008C011241E
:100020001FBECFE5D2E0DEBFCDBF9BD06AC2E8CF16
:1000300028B3982F9095292328BB27B3922397BBE9
:1000400094B3892B84BB17B883B1887F83B986B1F9
:10005000806886B9089510BE1EBC1BBC19BE1DBCAD
:1000600080B7806580BF0895382F6623D9F087B1A7
:10007000832B87B920E040E050E0261758F42F5F2B
:1000800096B1906496B93699FECF84B195B1480F78
:10009000591FF3CF70E0CA0120D297B130953923B0
:1000A00037B902C060E070E0CB01089568E082E0FB
:1000B000DBDFBC0180E090E017D120E030EC4FE7BF
:1000C00054E47ED020E030E040E751E49BD1E0D022
:1000D000611101C061E0862F8F70089518BA8FEF0B
:1000E00087BB8CE1A5DFB7DFE1DF089564E081E045
:1000F000BBDFBC0180E090E0F7D020E030EC4FE7C0
:1001000054E45ED020E030E04FE753E47BD1C0D030
:10011000862F809509F481E00895CF92DF92EF92C7
:10012000FF92CF93C82F64E083E09EDFBC0180E0A4
:1001300090E0DAD020E030EC4FE754E441D06B019E
:100140007C016C2F70E080E090E0CED0A70196019A
:1001500059D19ED0862FCF91FF90EF90DF90CF9016
:100160000895BCDFC3DFC82FD8DFD82FCC2311F010
:1001700081110DC08CB58D7F8CBD80B78F7A80BF0B
:1001800088B38D7F88BB88B3816088BB16C08F3FE2
:1001900069F48CB58D7F8CBD80B78F7A80BF88B3B2
:1001A000826088BB88B38E7F88BB07C07FDF90B733
:1001B000907A8F70892B806580BFCDBDDEBDD2CF98
:1001C0000CD0E6C0DED040F0D5D030F021F45F3F57
:1001D00019F0C7C0511110C1CAC0EBD098F39923D0
:1001E000C9F35523B1F3951B550BBB27AA276217FB
:1001F0007307840738F09F5F5F4F220F331F441F40
:10020000AA1FA9F333D00E2E3AF0E0E830D0915077
:100210005040E695001CCAF729D0FE2F27D0660F64
:10022000771F881FBB1F261737074807AB07B0E8A3
:1002300009F0BB0B802DBF01FF2793585F4F2AF0B9
:100240009E3F510568F08DC0D7C05F3FECF3983EEC
:10025000DCF3869577956795B795F7959F5FC9F716
:10026000880F911D9695879597F90895E1E0660F9F
:10027000771F881FBB1F621773078407BA0720F018
:10028000621B730B840BBA0BEE1F88F7E095089581
:1002900098D088F09F5790F0B92F9927B751A0F0C8
:1002A000D1F0660F771F881F991F1AF0BA95C9F70A
:1002B00012C0B13081F09FD0B1E008959CC0672F8B
:1002C000782F8827B85F39F0B93FCCF386957795BA
:1002D0006795B395D9F73EF49095809570956195A3
:1002E0007F4F8F4F9F4F0895E89409C097FB3EF4CE
:1002F00090958095709561957F4F8F4F9F4F992373
:10030000A9F0F92F96E9BB279395F69587957795F0
:100310006795B795F111F8CFFAF4BB0F11F460FFB0
:100320001BC06F5F7F4F8F4F9F4F16C0882311F008
:1003300096E911C0772321F09EE8872F762F05C01C
:10034000662371F096E8862F70E060E02AF09A95B7
:10035000660F771F881FDAF7880F9695879597F9AC
:10036000089597F99F6780E870E060E008959FEF37
:1003700080EC089500240A9416161706180609063C
:10038000089500240A94121613061406050608950B
:10039000092E0394000C11F4882352F0BB0F40F493
:1003A000BF2B11F460FF04C06F5F7F4F8F4F9F4FD3
:1003B000089557FD9058440F551F59F05F3F71F055
:1003C0004795880F97FB991F61F09F3F79F08795BC
:1003D0000895121613061406551FF2CF4695F1DF45
:1003E00008C0161617061806991FF1CF86957105D5
:1003F000610508940895E894BB2766277727CB0109
:1004000097F908950AD0C4CFB5DF28F0BADF18F005
:10041000952309F0A6CFABCFEFCFCBDFA8F399237D
:10042000D9F35523C9F3950F50E0551FAA27EE279E
:10043000FF27BB2700240894679520F4E20FF31FE1
:10044000B41F0A1E220F331F441FAA1F6695A9F767
:10045000779530F4F30FB41F0A1E121E08F463954B
:10046000330F441FAA1F221F769599F7879520F412
:10047000B40F0A1E121E631F440FAA1F221F331F30
:100480008695A9F7862F712D602D11249F57504016
:100490008AF0E1F088234AF0EE0FFF1FBB1F661FB2
:1004A000771F881F91505040A9F79E3F510570F06B
:1004B00058CFA2CF5F3FECF3983EDCF3869577955B
:1004C0006795B795F795E7959F5FC1F7FE2B880F66
:1004D000911D9695879597F90895AA1BBB1B51E12D
:1004E00007C0AA1FBB1FA617B70710F0A61BB70BA4
:1004F000881F991F5A95A9F780959095BC01CD0149
:060500000895F894FFCFFE
:00000001FF
